{
  "contractName": "calculator",
  "abi": [
    {
      "inputs": [
        {
          "internalType": "uint256",
          "name": "num1",
          "type": "uint256"
        },
        {
          "internalType": "uint256",
          "name": "num2",
          "type": "uint256"
        }
      ],
      "name": "addNum",
      "outputs": [
        {
          "internalType": "uint256",
          "name": "",
          "type": "uint256"
        }
      ],
      "stateMutability": "nonpayable",
      "type": "function"
    },
    {
      "inputs": [
        {
          "internalType": "uint256",
          "name": "num1",
          "type": "uint256"
        },
        {
          "internalType": "uint256",
          "name": "num2",
          "type": "uint256"
        }
      ],
      "name": "subNum",
      "outputs": [
        {
          "internalType": "uint256",
          "name": "",
          "type": "uint256"
        }
      ],
      "stateMutability": "nonpayable",
      "type": "function"
    },
    {
      "inputs": [
        {
          "internalType": "uint256",
          "name": "num1",
          "type": "uint256"
        },
        {
          "internalType": "uint256",
          "name": "num2",
          "type": "uint256"
        }
      ],
      "name": "mulNum",
      "outputs": [
        {
          "internalType": "uint256",
          "name": "",
          "type": "uint256"
        }
      ],
      "stateMutability": "nonpayable",
      "type": "function"
    },
    {
      "inputs": [
        {
          "internalType": "uint256",
          "name": "num1",
          "type": "uint256"
        },
        {
          "internalType": "uint256",
          "name": "num2",
          "type": "uint256"
        }
      ],
      "name": "divNum",
      "outputs": [
        {
          "internalType": "uint256",
          "name": "",
          "type": "uint256"
        }
      ],
      "stateMutability": "nonpayable",
      "type": "function"
    }
  ],
  "bytecode": "0x6080604052348015600e575f5ffd5b5061037c8061001c5f395ff3fe608060405234801561000f575f5ffd5b506004361061004a575f3560e01c80636f827c3e1461004e5780637eaddeaa1461007e578063e4ada89c146100ae578063fb596d07146100de575b5f5ffd5b610068600480360381019061006391906101af565b61010e565b60405161007591906101fc565b60405180910390f35b610098600480360381019061009391906101af565b610123565b6040516100a591906101fc565b60405180910390f35b6100c860048036038101906100c391906101af565b61014e565b6040516100d591906101fc565b60405180910390f35b6100f860048036038101906100f391906101af565b610163565b60405161010591906101fc565b60405180910390f35b5f818361011b9190610242565b905092915050565b5f5f821161012f575f5ffd5b81831161013a575f5ffd5b818361014691906102a2565b905092915050565b5f818361015b91906102d2565b905092915050565b5f81836101709190610305565b905092915050565b5f5ffd5b5f819050919050565b61018e8161017c565b8114610198575f5ffd5b50565b5f813590506101a981610185565b92915050565b5f5f604083850312156101c5576101c4610178565b5b5f6101d28582860161019b565b92505060206101e38582860161019b565b9150509250929050565b6101f68161017c565b82525050565b5f60208201905061020f5f8301846101ed565b92915050565b7f4e487b71000000000000000000000000000000000000000000000000000000005f52601160045260245ffd5b5f61024c8261017c565b91506102578361017c565b925082820390508181111561026f5761026e610215565b5b92915050565b7f4e487b71000000000000000000000000000000000000000000000000000000005f52601260045260245ffd5b5f6102ac8261017c565b91506102b78361017c565b9250826102c7576102c6610275565b5b828204905092915050565b5f6102dc8261017c565b91506102e78361017c565b92508282019050808211156102ff576102fe610215565b5b92915050565b5f61030f8261017c565b915061031a8361017c565b92508282026103288161017c565b9150828204841483151761033f5761033e610215565b5b509291505056fea2646970667358221220eddefc04d641907e2723b1715ec6c11ed0dcf7e50d9bba1665c09ad90153596964736f6c634300081e0033",
  "immutableReferences": {},
  "source": "pragma solidity ^0.8.0;\r\n\r\ncontract calculator{\r\n    function addNum( uint num1 , uint num2) public returns (uint){\r\n        return num1+num2 ;\r\n    }\r\n    function subNum( uint num1 , uint num2) public returns (uint){\r\n        return num1-num2 ;\r\n    }\r\n    function mulNum( uint num1 , uint num2) public returns (uint){\r\n        return num1*num2 ;\r\n    } \r\n    function divNum( uint num1 , uint num2) public returns (uint){\r\n        require(num2>0);\r\n        require(num1>num2);\r\n        return num1/num2 ;\r\n    }  \r\n\r\n}",
  "sourcePath": "C:\\Users\\Ashutosh Nigam\\OneDrive\\Desktop\\dapp\\calculator dapp\\contracts\\calculator.sol",
  "compiler": {
    "name": "solc",
    "version": "0.8.30+commit.73712a01.Emscripten.clang"
  },
  "schemaVersion": "3.4.16",
  "updatedAt": "2025-08-29T16:47:51.217Z",
  "networkType": "ethereum",
  "devdoc": {
    "kind": "dev",
    "methods": {},
    "version": 1
  },
  "userdoc": {
    "kind": "user",
    "methods": {},
    "version": 1
  }
}